:100000000C9472000C9493000C9493000C94930045
:100010000C9493000C9493000C9493000C94930014
:100020000C9493000C9493000C9493000C94930004
:100030000C9493000C9493000C9493000C949300F4
:100040000C9493000C9493000C9493000C949300E4
:100050000C9493000C9493000C9493000C949300D4
:100060000C9493000C9493000C9493000C949300C4
:100070000C9493000C9493000C9493000C949300B4
:100080000C9493000C9493000C9493000C949300A4
:100090000C9493000C9493000C9493000C94930094
:1000A0000C9493000C9493000C9493000C94930084
:1000B0000C9493000C9493000C9493000C94930074
:1000C0000C9493000C9493000C9493000C94930064
:1000D0000C9493000C9493000C9493000C94930054
:1000E0000C94930011241FBECFEFD1E2DEBFCDBF31
:1000F00000E00CBF14E0A0E0B2E0E0E3F8E100E0D3
:100100000BBF02C007900D92A039B107D9F724E0C8
:10011000A0E9B4E001C01D92A93AB207E1F70E943C
:1001200095050C94160C0C9400009091C00095FF5E
:10013000FCCF8093C6000895CF93DF93EC018991A3
:10014000882319F00E949500FACFDF91CF9108958E
:100150000E949C008DE00E9495008AE00C9495001E
:100160002F923F924F925F926F927F928F929F92C7
:10017000AF92BF92CF92DF92EF92FF920F931F93B5
:10018000CF93DF93CDB7DEB760970FB6F894DEBF9D
:100190000FBECDBF2B013C0177FE07C06627772736
:1001A000CB0164197509860997099E012F5F3F4F9E
:1001B00069011901F12CE12C2AE0822E912CA12C4D
:1001C000B12C87010F5F1F4FA50194010E94610AA6
:1001D000605DF10161931F01B901CA0161157105EB
:1001E0008105910539F078010F30110551F78EE046
:1001F000E82EF12C77FE08C0F601E00FF11F8DE22A
:10020000808387010E5F1F4F0C0D1D1DF801829129
:100210008F010E9495000C151D05C1F760960FB661
:10022000F894DEBF0FBECDBFDF91CF911F910F912C
:10023000FF90EF90DF90CF90BF90AF909F908F9006
:100240007F906F905F904F903F902F900895CF9345
:10025000C82FE82FE295EF70F0E0E05CFD4F808161
:100260000E949500CF70EC2FF0E0E05CFD4F8081A4
:10027000CF910C949500DC011296ED91FC911397AF
:10028000208116963C9181E090E001C0880F3A955C
:10029000EAF78095822380830895DC011996ED9119
:1002A000FC911A9720811D963C9181E090E001C05D
:1002B000880F3A95EAF78095822380830895FC01A0
:1002C000A081B1818C91968141E050E09A0101C0FA
:1002D000220F9A95EAF7209528232C93A281B381C7
:1002E0008C91968101C0440F9A95EAF7482B4C9364
:1002F0000895FC01A781B0858C91958541E050E07F
:100300009A0101C0220F9A95EAF7209528232C9391
:10031000A185B2858C91958501C0440F9A95EAF725
:10032000482B4C9308951F93CF93DF93009791F13F
:10033000FC011081112371F1EC0161E572E00E9472
:10034000B10B892B39F11F7D1234A1F4CE01039634
:100350000E94860B8430910568F421E030E0A90109
:1003600002C0440F551F8A95E2F7CA01DF91CF9171
:100370001F910895CE010E94860B8430910568F488
:1003800021E030E0F90102C0EE0FFF1F8A95E2F78D
:10039000CF01ECCF8FE090E0E9CF90E080E0E6CFB6
:1003A00040ED57E0DC011B96ED91FC911C972081FC
:1003B00030E01D966C9102C0359527956A95E2F75D
:1003C00020FD09C0B5E0BA95F1F700004150510990
:1003D00049F780E0089581E008951F93CF93DF935C
:1003E000EC010E943B01CE010E944D018AE08A95FA
:1003F000F1F700C0CE010E94D001182F882371F0C0
:10040000CE010E945F018AE08A95F1F700C0CE011B
:100410000E9479018AE08A95F1F700C0812FDF916F
:10042000CF911F910895CF93DF93EC010E945F015C
:100430008AE08A95F1F700C0CE010E944D018AE062
:100440008A95F1F700C0CE010E94D001CE010E9432
:100450003B018AE08A95F1F700C0DF91CF910895C2
:100460001F93CF93DF93EC016623F9F00E943B01C9
:10047000CE010E944D018AE08A95F1F700C0CE01BD
:100480000E94D001182F882359F08AE08A95F1F74D
:1004900000C0CE010E9479018AE08A95F1F700C080
:1004A000812FDF91CF911F9108950E945F01E0CFCE
:1004B000FF920F931F93CF93DF93EC018B010E9468
:1004C0003B01CE010E944D018AE08A95F1F700C000
:1004D000CE010E94D001F82E8823C1F0EAE0EA950F
:1004E000F1F700C0EC81FD81808190E02E8102C097
:1004F000959587952A95E2F78170F8018083CE0162
:100500000E947901FAE0FA95F1F700C08F2DDF9192
:10051000CF911F910F91FF900895CF92DF92EF92AC
:10052000FF920F931F93CF93DF931F92CDB7DEB748
:100530006C01E62E08E010E080E8F82E61E08E2DD8
:100540008F2109F460E0C6010E943002882381F007
:10055000F6940150110991F7BE016F5F7F4FC601FC
:100560000E945802882321F081E09981911180E056
:100570000F90DF91CF911F910F91FF90EF90DF903F
:10058000CF900895FF920F931F93CF93DF93EC01C9
:10059000F62E042F0E94ED01182F882351F06CE1F4
:1005A000CE010E948D0281110BC0CE010E94130268
:1005B00010E0812FDF91CF911F910F91FF9008954F
:1005C0006F2DCE010E948D02882379F3602FCE011A
:1005D0000E948D02182F882341F3CE010E9413023E
:1005E000E8CF5F926F927F928F929F92AF92BF926D
:1005F000CF92DF92EF92FF920F931F93CF93DF93EF
:100600001F92CDB7DEB78C01E62E5A01522E0E9402
:10061000ED01F82E882351F06CE1C8010E948D0293
:10062000811116C0C8010E941302F12C8F2D0F906A
:10063000DF91CF911F910F91FF90EF90DF90CF90BE
:10064000BF90AF909F908F907F906F905F90089534
:100650006E2DC8010E948D02882321F3C8010E94DB
:100660003B01C8010E944D018AE08A95F1F700C064
:10067000C8010E94D0018823A9F2C8010E945F012D
:10068000EAE0EA95F1F700C0C8010E947901FAE0BA
:10069000FA95F1F700C06DE1C8010E948D02F82EB5
:1006A000882309F4BFCF6501712C852C912C571438
:1006B00049F188E0682EE12CBE016F5F7F4FC801D1
:1006C0000E945802882309F4ADCF81E099819111ED
:1006D00001C080E0EE0CE82A6A946110EDCFF601CB
:1006E000E1926F01CF018A199B0961E08815990594
:1006F0000CF460E0C8010E943002882309F492CF14
:100700007394D5CFC8010E94130290CF21E00C94BE
:10071000F102EF92FF920F931F93CF93DF9300D0DC
:100720001F921F92CDB7DEB77C011D821C821B82F7
:100730001A82198285E592E00E949C00870184E07C
:10074000000F111F8A95E1F700501E4FF8018685B2
:1007500097850E949C0089E592E00E949C00F70129
:10076000E356FB4F8081811110C08CE592E00E941E
:10077000A8000F900F900F900F900F90DF91CF91E6
:100780001F910F91FF90EF900895AE014B5F5F4F67
:1007900067E0C8010E948603AE014C5F5F4F68E0CE
:1007A000C8010E948603AE014D5F5F4F60E1C80142
:1007B0000E948603AE014E5F5F4F61E1C8010E9457
:1007C0008603AE014F5F5F4F6FE0C8010E94860352
:1007D00086E692E00E949C008D810E9427018DE6B2
:1007E00092E00E949C006C8170E090E080E00E94AA
:1007F000B00086E792E00E949C008B810E94270156
:1008000080E892E00E949C008A810E9427018AE889
:1008100092E00E949C006981062E000C770B880BE9
:10082000990B0E94B00081E992E0A1CFCF92DF92B4
:10083000EF92FF920F931F93CF93DF9300D000D0DE
:10084000CDB7DEB76B017A01890126E0AE014F5FBB
:100850005F4F61E00E94F1028823C1F029813A8153
:10086000322723273227F601318320832B813C81D5
:10087000322723273227F701318320832D813E81C0
:10088000322723273227F8013183208326960FB69B
:10089000F894DEBF0FBECDBFDF91CF911F910F91B6
:1008A000FF90EF90DF90CF9008951F93CF93DF9349
:1008B000EC018E859F850E949C008CE992E00E944D
:1008C0009C00CE010E943B01CE010E944D018FE9A8
:1008D0009FE00197F1F700C00000EC81FD8180816D
:1008E00090E02E8102C0959587952A95E2F711E058
:1008F00080FD05C085EA92E00E949C0010E0EB8537
:10090000FC85808190E02D8502C0959587952A957C
:10091000E2F780FD05C080EB92E00E949C0010E0B1
:10092000CE010E945F01CE010E9479018FE99FE014
:100930000197F1F700C00000EC81FD81808190E01B
:100940002E8102C0959587952A95E2F780FF05C014
:100950008BEB92E00E949C0010E0EB85FC8580818F
:1009600090E02D8502C0959587952A95E2F780FF46
:1009700005C08AEC92E00E949C0010E0CE010E942B
:100980003B01CE010E944D018FE99FE00197F1F7F5
:1009900000C0000087E992E0112311F084E992E0A1
:1009A0000E94A800812FDF91CF911F910895BF92DF
:1009B000CF92DF92EF92FF920F931F93CF93DF932B
:1009C00089ED92E00E94A80000E012E0E801EE2428
:1009D000E394F12CE881F98120818E81A70102C086
:1009E000440F551F8A95E2F7CA01809582238083C0
:1009F000EF81F88520818D85A70102C0440F551F26
:100A00008A95E2F7CA01809582238083CE010E94F5
:100A10003B01CE010E944D0155E35A95F1F70000CC
:100A2000609682E0C034D807A9F6EFE1FEE4319782
:100A3000F1F700C0000091EAE92E94E0F92E670179
:100A4000C0E0D2E0CE010E945504F60181936F010F
:100A500081112BC08E859F850E949C008EEF92E0B5
:100A60000E94A800CE010E943B0189E0B82ECE0171
:100A70000E944D01FAE0FA95F1F700C04AE04A956C
:100A8000F1F700C0CE010E9479015AE05A95F1F7C2
:100A900000C0BA94B110EBCFCE010E941302CE0178
:100AA0000E945504F60131978083609682E0C0343D
:100AB000D80741F6CDE9D4E0F70181917F0181119A
:100AC00026C0D12CD992005F1F4FF5EAEF16F4E053
:100AD000FF0691F78CE093E00E94A80090E080E090
:100AE0000E94890381E090E00E94890382E090E007
:100AF0000E94890383E090E0DF91CF911F910F91D5
:100B0000FF90EF90DF90CF90BF900C948903C801C5
:100B10000E94ED018823A9F26CE1C8010E948D02B8
:100B2000D82EC8010E941302CDCFCF93DF93CDB74B
:100B3000DEB7C556D1090FB6F894DEBF0FBECDBFE4
:100B400082E08093C0001092C50080E18093C400D1
:100B500088E18093C10086E08093C2008091C0004C
:100B600087FF03C08091C600F9CF0E94D7048FE0B1
:100B7000782E612C7E0121E4E20EF11C8091C000F0
:100B800087FFDCC38091C6008D30C1F3E0919404EF
:100B90008A3001F581E090E08C0F9D1F8E0F911D32
:100BA000FC011082109294046AE572E0CE01019675
:100BB0000E94AD0B8C01FC01892B01F381918823EC
:100BC000D9F09FE9980F9A31C8F7DF011197805249
:100BD0008C93F4CFEF3368F491E09E0F90939404DC
:100BE00021E030E02C0F3D1F2E0F311DF9018083D5
:100BF000C5CF10929404C2CF62E173E0C8010E9495
:100C0000B10B892B19F40E94D704B8CF6CE173E0C3
:100C1000C8010E94B10B892BA1F5B1EACB2EB4E03B
:100C2000DB2E1DE9812E14E0912E09E9A02E04E0AF
:100C3000B02E00E012E0F60181916F01811113C026
:100C4000512CF40151924F01F50111925F01005FA7
:100C50001F4FF5EACF16F4E0DF0669F788E193E06D
:100C60000E94A8008BCFC8010E94ED01882341F3A8
:100C70006CE1C8010E948D02582EC8010E94130227
:100C8000E0CF61E273E0C8010E94B10B892B89F4C7
:100C900090E080E00E94890381E090E00E94890357
:100CA00082E090E00E94890383E090E00E94890343
:100CB00065CF6AE273E0C8010E94B10B6C01892B19
:100CC000F1F56AE572E090E080E00E94AD0B0E94D1
:100CD00093015C0199249394C5010C2C02C0959555
:100CE00087950A94E2F780FF20C0F601E356FB4F98
:100CF00080818823D1F08601A4E0000F111FAA95FE
:100D0000E1F700501E4F40E060E1C8010E94C202BE
:100D100040E861E1C8010E94C202F601EB56FB4FB8
:100D20001082F601E756FB4F90822FEFC21AD20ACB
:100D300034E0C316D10481F686E293E091CF63E3F9
:100D400073E0C8010E94B10B6C01892B91F56AE533
:100D500072E090E080E00E94AD0B0E9493018C0154
:100D6000C8010C2C02C0959587950A94E2F780FF84
:100D700016C0F601E756FB4F8081882381F0F6010B
:100D8000EB56FB4F4081416060E1C601F4E0880F03
:100D9000991FFA95E1F780509E4F0E94C2028FEF93
:100DA000C81AD80A94E0C916D104D1F68FE293E0AC
:100DB00057CF6EE373E0C8010E94B10B6C01892B21
:100DC00071F56AE572E090E080E00E94AD0B0E9450
:100DD00093018C01C8010C2C02C0959587950A944B
:100DE000E2F780FF12C0F601E356FB4F80818823B3
:100DF00061F040E060E1C601E4E0880F991FEA95E8
:100E0000E1F780509E4F0E94C202EFEFCE1ADE0A39
:100E1000F4E0CF16D104F1F68AE393E021CF69E53F
:100E200073E0C8010E94B10B892B09F043C06AE549
:100E300072E090E080E00E94AD0B8C016AE572E008
:100E400090E080E00E94AD0B6C010115110511F0DE
:100E5000892B19F486E493E003CFC8010E94860B26
:100E60008C0140E150E070E060E0C6010E94830A1E
:100E7000D62E04301105D8F4F801E356FB4F8081DB
:100E80008823A9F0C80174E0880F991F7A95E1F7CB
:100E90004D2D60E180509E4F0E94C202F801EB563A
:100EA000FB4F8D2D8E7F808385E593E0D9CE8EE537
:100EB00093E0D6CE62E873E0C8010E94B10B892BA3
:100EC000E1F56AE572E090E080E00E94AD0B8C01F4
:100ED0006AE572E090E080E00E94AD0B6C010115C4
:100EE000110511F0892B19F48FE693E0B9CEC801F2
:100EF0000E94860B8C0140E150E070E060E0C6018A
:100F00000E94830A462F04301105A0F4F801E3562D
:100F1000FB4F8081882371F0C80164E0880F991F1E
:100F20006A95E1F761E180509E4F0E94C2028EE710
:100F300093E096CE87E893E093CE69EA73E0C80128
:100F40000E94B10B892B09F053C06AE572E090E072
:100F500080E00E94AD0B8C016AE572E090E080E0D9
:100F60000E94AD0B5C016AE572E090E080E00E94B7
:100F7000AD0B6C010115110529F0A114B10411F09C
:100F8000892B19F488E993E06BCEC8010E94860B87
:100F90008C0140E150E070E060E0C5010E94830AEE
:100FA000B62E40E150E070E060E0C6010E94830A86
:100FB000462F04301105C8F4F801E356FB4F808139
:100FC000882399F0C80154E0880F991F5A95E1F7DA
:100FD0006B2D80509E4F0E94C202882319F085EA33
:100FE00093E03ECE8CEA93E03BCE87EB93E038CEA5
:100FF00066EC73E0C8010E94B10B892B09F072C046
:101000006AE572E090E080E00E94AD0B8C016AE539
:1010100072E090E080E00E94AD0B5C016AE572E056
:1010200090E080E00E94AD0B6C010115110529F0E4
:10103000A114B10411F0892B19F489EC93E010CEBE
:10104000C8010E94860B8C0140E150E070E060E036
:10105000C5010E94830AB62EC6010E94860B6C0150
:101060000197809718F0CC24C394D12C043011053B
:10107000B0F5F801E356FB4F8081882381F124E02D
:10108000000F111F2A95E1F700501E4F2C2DA701CC
:101090006B2DC8010E94F1028823F1F086ED93E0E8
:1010A0000E949C00F801868597850E949C008AE535
:1010B00092E00E949C008701F80181918F010E94BB
:1010C0002701C8018E199F098C159D050CF0F2C1EE
:1010D00080E20E949500F0CF8AED93E0C1CD85EECD
:1010E00093E0BECD64EF73E0C8010E94B10B6C01C8
:1010F000892B09F0B7C06AE572E090E080E00E94B9
:10110000AD0B0E9493015C012090900430909104FB
:101110004090920450909304FFEF2F1A3F0A4F0A19
:101120005F0A20929004309291044092920450926F
:10113000930400E012E0C5010C2C02C09595879540
:101140000A94E2F780FF83C0A5961FAE1EAEA59756
:10115000A3961FAE1EAEA397F70111821082A6962A
:101160001FAEA697AE014B595F4F6FE0C8010E94BA
:101170008603F601E356FB4F9080992059F09701C2
:10118000AE014F595F4FBE016D597F4FC8010E949C
:101190001604982E8CEF93E00E949C00C201B101CE
:1011A0000E94B0008FEF93E00E949C00F8018685BA
:1011B00097850E949C0081E094E00E949C0060E082
:1011C00070E0CB01992041F0A5966EAD7FADA5975B
:1011D000072E000C880B990B0E94B00085E094E06C
:1011E0000E949C0060E070E0CB01992041F0A39642
:1011F0006EAD7FADA397072E000C880B990B0E9454
:10120000B00089E094E00E949C0060E070E0CB01B7
:10121000992039F0F70160817181072E000C880B4D
:10122000990B0E94B0008DE094E00E949C00A6966D
:101230006FADA697062E000C770B880B990B0E94BA
:10124000B0008DE00E9495008AE00E949500FFEFBB
:10125000CF1ADF0A005F1F4F24E0C216D10409F045
:101260006ACF8CCC61E174E0C8010E94B10B892B7C
:10127000C1F56AE572E090E080E00E94AD0B8C0160
:10128000009761F166E574E00E94B10B892BC9F407
:101290006AE572E090E080E00E94AD0B009771F08B
:1012A00050E040E070E060E00E94830A762E88E122
:1012B00094E00E94A8006624639460CC9FE0792E9D
:1012C000F6CF64E674E0C8010E94B10B892B31F4BB
:1012D00089E294E00E94A800612C50CC89E394E05C
:1012E000BFCC6AE474E0C8010E94B10B892BF9F409
:1012F0006AE572E090E080E00E94AD0B8C010097FF
:1013000099F066E574E00E94B10B892B19F48EE424
:1013100094E0A6CC64E674E0C8010E94B10B892B6E
:1013200019F48CE594E09CCC89E694E099CC87E7AD
:1013300094E00E949C00C8010E94A800662009F465
:101340001DCC2090900430909104409092045090D5
:1013500093043FEF231A330A430A530A209290045E
:1013600030929104409292045092930480E0C82EEF
:1013700082E0D82E10E000E0A72CB12CC501002E91
:1013800002C0959587950A94E2F780FF83C0A596E1
:101390001FAE1EAEA597A3961FAE1EAEA397F70174
:1013A00011821082A6961FAEA697AE014B595F4FD1
:1013B0006FE0C6010E948603F801E356FB4F908060
:1013C000992059F09701AE014F595F4FBE016D59F9
:1013D0007F4FC6010E941604982E8CEF93E00E9466
:1013E0009C00C201B1010E94B0008FEF93E00E9407
:1013F0009C00F601868597850E949C0081E094E020
:101400000E949C0060E070E0CB01992041F0A5961D
:101410006EAD7FADA597072E000C880B990B0E942F
:10142000B00085E094E00E949C0060E070E0CB0199
:10143000992041F0A3966EAD7FADA397072E000CC7
:10144000880B990B0E94B00089E094E00E949C00F8
:1014500060E070E0CB01992039F0F7016081718183
:10146000072E000C880B990B0E94B0008DE094E0D1
:101470000E949C00A6966FADA697062E000C770BD7
:10148000880B990B0E94B0008DE00E9495008AE0C5
:101490000E9495000F5F1F4FF0E1CF0ED11C04306A
:1014A000110509F06BCF8FE39CE90197F1F700C0BC
:1014B000000064CB8DE00E9495008AE00E949500B8
:1014C0005DCBA1E21A2EAA1BBB1BFD010DC0AA1FFA
:1014D000BB1FEE1FFF1FA217B307E407F50720F09D
:1014E000A21BB30BE40BF50B661F771F881F991F18
:1014F0001A9469F760957095809590959B01AC0161
:10150000BD01CF0108953F924F925F926F927F92FB
:101510008F929F92AF92BF92CF92DF92EF92FF9203
:101520000F931F93CF93DF935C016B017A016115D9
:10153000710519F0FB0191838083E114F10449F0F6
:10154000C7010297839728F060E070E0CB019BC051
:101550005E01E5012196F5011081812F90E00E9446
:10156000A40B892BA9F71D3209F05CC02196F50167
:10157000118101E0E114F10409F4BBC0F0E1EF16C0
:10158000F10409F09BC0103341F488818F7D8835C8
:1015900009F08FC0198122960260E0E1EE2EF12C55
:1015A00088248A94982CA82CFFE0BF2E20E060E0CD
:1015B00070E0CB0127010F2C000C66087708FE01B4
:1015C00050ED352E310E39E0331568F43FEB310F15
:1015D00049EC342E3A3130F03FE9310F3A31B0F571
:1015E00039EA332E310E3E141F0484F52F3FB9F033
:1015F00086169706A806B90638F1A30192010E9443
:10160000EC0B232D30E050E040E0620F731F841F8D
:10161000951F6217730784079507B0F021E02196A4
:101620001081CDCF1B3221F4E5012296F501118105
:1016300000E0A0CF78E0E72EF12C88248A94982C43
:10164000A82C6FE1B62EB2CF2FEFE9CFC114D10491
:1016500031F0222351F12197F601D183C08300FF9D
:1016600007C090958095709561957F4F8F4F9F4FE4
:101670002F3F49F482E290E09093A8048093A7045E
:101680006FEF7FEFCB01DF91CF911F910F91FF9013
:10169000EF90DF90CF90BF90AF909F908F907F9012
:1016A0006F905F904F903F90089501FFD8CF2297A1
:1016B000D3CF10E3E114F10409F4BCCF3AE0E31610
:1016C000F104E9F080E1E816F10409F466CFE8E0FE
:1016D000EE16F10409F4B1CF6FEF7FEFCB01970164
:1016E0000F2C000C440B550B0E94610A49015A0152
:1016F0005DCF103309F449CF9AE0E92EF12C89E946
:10170000882E982CA82C89E1B82E50CFFC01882770
:101710009927E89421912032E9F3293010F02E30F6
:10172000C8F32B3241F02D3239F4689404C00E9482
:10173000E10B820F911D219120532A30C0F31EF43A
:10174000909581959F4F089591110C94E90B8032EB
:1017500019F089508550C8F7089545EA54E00C9473
:10176000BA0BFB01DC018D91019080190110D9F3B6
:10177000990B0895FA01A191B081009719F410977F
:10178000E1F0CD01DC01CD010D90002011F4C0018C
:1017900013C0FB012191222319F02015D9F7F3CFB3
:1017A000FB012191201519F41E92119606C02223E7
:1017B000C1F70D900020A1F7D001FA01A193B083E9
:1017C00008957AE0979F902D879F802D910D112489
:1017D0000895992788270895DB018F939F930E948E
:1017E000FC0BBF91AF91A29F800D911DA39F900D07
:1017F000B29F900D112408950E94070CA59F900D93
:10180000B49F900DA49F800D911D11240895A29F57
:10181000B001B39FC001A39F700D811D1124911DC4
:10182000B29F700D811D1124911D0895F894FFCF72
:101830002E002D002C00042E002D002C00057C0411
:10184000340033003200052E002D002C00038104EB
:1018500002010101000103020101010001048604EB
:1018600002010101000105020101010001068B04D2
:1018700030313233343536373839414243444546C6
:1018800000414C4C00494E464F3A20006E6F206498
:1018900065766963650057484F3D3078002053599D
:1018A000534D4F443D00204354524C313D3078005D
:1018B000204354524C323D3078002054454D503D29
:1018C000002043004F4B004641494C003A206C69D0
:1018D0006E653A20005B534441204C4F575D200019
:1018E0005B53434C204C4F575D20005B53444120D9
:1018F0006E6F74204C4F575D20005B53434C206E3D
:101900006F74204C4F575D20003D3D3D204D4147B9
:101910003331313020783420284D656761323536D7
:10192000302044322E2E443929203D3D3D003A20BE
:10193000747279207265636F766572005245414416
:10194000590048454C4C4F0041434B205343414EB6
:1019500000494E464F0041434B20494E49540041F7
:10196000434B204143544956450041434B20535477
:10197000414E44425900455252204346473120755A
:10198000736167650041434B204346473100455230
:1019900052204346473120626164206275730045DE
:1019A00052522043464732207573616765004143B8
:1019B0004B2043464732004552522043464732208F
:1019C000626164206275730045525220575220753F
:1019D000736167650041434B2057520045525220C6
:1019E00057522049324300455252205752206261DB
:1019F00064206275730052440045525220524420C4
:101A0000757361676500524420004552522052446C
:101A100020493243004552522052442062616420E2
:101A2000627573005245414458595A0058595A2C0E
:101A3000002C583D0020593D00205A3D0020543DC7
:101A40000053545245414D0041434B20535452459D
:101A5000414D2053544152540041434B2053545262
:101A600045414D2053544F5000455252205354523B
:101A700045414D2075736167650043414C0041430A
:101A80004B2043414C2053544152540041434B207E
:101A900043414C2053544F50004552522043414C37
:101AA000207573616765004E414B200042757330AD
:101AB0000042757331004275733200427573330012
:00000001FF
