:100000000C9472000C9493000C9493000C94930045
:100010000C9493000C9493000C9493000C94930014
:100020000C9493000C9493000C9493000C94930004
:100030000C9493000C9493000C9493000C949300F4
:100040000C9493000C9493000C9493000C949300E4
:100050000C9493000C9493000C9493000C949300D4
:100060000C9493000C9493000C9493000C949300C4
:100070000C9493000C9493000C9493000C949300B4
:100080000C9493000C9493000C9493000C949300A4
:100090000C9493000C9493000C9493000C94930094
:1000A0000C9493000C9493000C9493000C94930084
:1000B0000C9493000C9493000C9493000C94930074
:1000C0000C9493000C9493000C9493000C94930064
:1000D0000C9493000C9493000C9493000C94930054
:1000E0000C94930011241FBECFEFD1E2DEBFCDBF31
:1000F00000E00CBF14E0A0E0B2E0E2E5F2E100E0D5
:100100000BBF02C007900D92AE3EB107D9F724E0B5
:10011000AEEEB4E001C01D92AF3EB207E1F70E941F
:1001200034020C9427090C940000FF920F931F9344
:10013000CF93DF93EC01F62E042F0E942A05182F8F
:10014000882351F06CE1CE010E94930581110BC010
:10015000CE010E94760510E0812FDF91CF911F9193
:100160000F91FF9008956F2DCE010E949305882373
:1001700079F3602FCE010E949305182F882341F355
:10018000CE010E947605E8CFBF92CF92DF92EF9228
:10019000FF920F931F93CF93DF93EC01162F6A0109
:1001A000022F0E942A05B82E882351F06CE1CE015F
:1001B0000E94930581110FC0CE010E947605B12CDB
:1001C0008B2DDF91CF911F910F91FF90EF90DF90DA
:1001D000CF90BF900895612FCE010E949305882390
:1001E00059F3CE010E945005882331F36DE1CE0111
:1001F0000E949305B82E8823F9F210E070E060E0C9
:100200000617170791F07B018FEFE81AF80A41E013
:10021000E016F1060CF040E06C0D7D1DCE010E9451
:10022000C805B7018111ECCFC7CFCE010E9476057A
:10023000C7CF21E00C94C40040E060E10C9495002D
:1002400041E060E10C949500462F61E10C9495002B
:10025000CF92DF92EF92FF920F931F93CF93DF9392
:1002600000D000D0CDB7DEB76B017A01890126E05E
:10027000AE014F5F5F4F61E00E94C4008823C1F070
:1002800029813A81322723273227F60131832083BF
:100290002B813C81322723273227F70131832083AA
:1002A0002D813E81322723273227F8013183208395
:1002B00026960FB6F894DEBF0FBECDBFDF91CF916B
:1002C0001F910F91FF90EF90DF90CF900895FF92D4
:1002D0000F931F93CF93DF9300D000D0CDB7DEB73D
:1002E0008C011E82AE014A5F5F4F67E00E941901D8
:1002F000F82EF80186859785F11007C00E942E0719
:1003000080E492E00E943A071CC00E942E0787E515
:1003100092E00E942E078E810E94B9078DE00E9414
:1003200027078AE00E9427078E81843CB9F0F801F4
:10033000868597850E942E0785E692E00E943A07FF
:10034000F12C8F2D26960FB6F894DEBF0FBECDBFD1
:10035000DF91CF911F910F91FF900895C8010E94E6
:100360001C01F82E811108C0F801868597850E942E
:100370002E0787E892E0C6CF60E8C8010E942401FA
:10038000F82E811108C0F801868597850E942E07F6
:1003900086E992E0B7CFC8010E942001F82E8111B2
:1003A00008C0F801868597850E942E0789EA92E0A9
:1003B000A9CF1D821C821B821A821982AE014B5F5B
:1003C0005F4F68E0C8010E941901AE014C5F5F4FAA
:1003D00060E0C8010E941901AE014D5F5F4F60E10E
:1003E000C8010E941901AE014E5F5F4F61E1C80173
:1003F0000E941901AE014F5F5F4F6FE0C8010E947C
:100400001901F801868597850E942E0787EB92E0F7
:100410000E942E076D8170E090E080E00E9442070C
:1004200081EC92E00E942E078C810E94B9078FEC2C
:1004300092E00E942E078B810E94B90789ED92E01D
:100440000E942E078A810E94B90783EE92E00E94E3
:100450002E076981062E000C770B880B990B0E94E2
:1004600042078EEE92E04ECFCF93DF93CDB7DEB74B
:10047000C257D1090FB6F894DEBF0FBECDBF60E002
:1004800072EC81E090E00E94F30680E4E0E0F2E0AC
:10049000DE01119601900D928A95E1F781EF92E0CD
:1004A0000E943A07CE0101960E94FF04CE014196B8
:1004B0000E94FF04CE0181960E94FF04CE01C196E6
:1004C0000E94FF048FE39CE90197F1F700C0000050
:1004D0008BE293E00E943A07CE0101960E941E062D
:1004E000AA968FAFAA97CE0141960E941E06AB96A0
:1004F0008FAFAB97CE0181960E941E06AC968FAF50
:10050000AC97CE01C1960E941E06AD968FAFAD97F7
:1005100085E493E00E943A077E0191E4E90EF11C24
:100520008E010F5F1F4FCC24C394D12CD80112969B
:10053000ED91FC911397208116968C911697A60148
:1005400002C0440F551F8A95E2F7CA0180958223A5
:1005500080831996ED91FC911A9720811D968C91BC
:10056000D60102C0AA0FBB1F8A95E2F7CD01809584
:1005700082238083EFE9FFE03197F1F700C00000AC
:10058000D8011496ED91FC911597208130E01696D4
:100590008C91169702C0359527958A95E2F71E969D
:1005A0008D919C9120FDA4C00E942E078DE593E0C3
:1005B0000E943A07C8010E94FE05005F1F4F0E15FA
:1005C0001F0509F0B3CF85E893E00E943A07A9968A
:1005D0001CAE1DAE1EAE1FAEA9978E0107591F4F50
:1005E000D12CC12CF80121918F01C60144E0880F64
:1005F000991F4A95E1F7222309F481C06EE021E0BA
:1006000030E02C0F3D1F820F931F0E94A606E5E6E7
:10061000F0E0EC0FFD1FEC0DFD1D8083BFEFCB1A4A
:10062000DB0AE4E0CE16D104E9F684EC93E00E9404
:100630003A07A5961CAE1DAE1EAE1FAEA5978E0145
:100640000B591F4FD12CC12CD8012D918D01C60102
:1006500034E0880F991F3A95E1F7222309F460C02E
:10066000E1E0F0E0EC0FFD1F8E0F9F1F0E9467017D
:10067000E1E6F0E0EC0FFD1FEC0DFD1D8083BFEF08
:10068000CB1ADB0AE4E0CE16D104F1F68FEE93E04C
:100690000E943A0788E094E00E943A0700E00E9436
:1006A000CD07892BF1F00E94D8078D30C1F3E0917E
:1006B000EE048A3009F045C0EE0DFF2DF11D1082C9
:1006C0001092EE04D7018C919FE9980F9A3108F4AB
:1006D00046C0833509F045C080E194E00E943A07A6
:1006E00001E0EFE9FFE03197F1F700C00000D7CF5C
:1006F0000E942E0785E793E00E943A075ECF41E013
:1007000050E04C0F5D1F840F951FDC011E968D91EC
:100710009C910E942E0787EA93E00E943A077ECFC1
:1007200021E030E02C0F3D1F820F931FDC011E964D
:100730008D919C910E942E078DED93E00E943A07C7
:100740009ECFEF3148F491E09E0F9093EE04EE0DB2
:10075000FF2DF11D8083A3CF1092EE04A0CF805215
:10076000B8CF843531F48AE194E00E943A0700E082
:10077000B8CF823509F06DC0002309F465C0FE01D1
:10078000EF59FF4F5F019E012F5F3F4F690110E35B
:1007900083E294E00E942E07812F0E9427078BE7B7
:1007A00094E00E942E07D5018D915D01882309F404
:1007B00046C09E0123593F4FAE0141595F4FBE01D4
:1007C0006F587F4FC6010E9428018823C1F187E23C
:1007D00094E00E942E07E3966EAD7FADE397072E5F
:1007E000000C880B990B0E9442078AE294E00E9459
:1007F0002E07E1966EAD7FADE197072E000C880BBA
:10080000990B0E9442078EE294E00E942E07AF9659
:100810006EAD7FADAF97072E000C880B990B0E9431
:1008200042078DE00E9427078AE00E9427071F5F8A
:10083000B0E1CB0ED11C143309F0AACF52CF82E322
:1008400094E00E942E07EDCF8EE394E00E943A07D9
:1008500048CF84E594E00E942E07C701F7CFDC0162
:100860001296ED91FC911397208116963C9181E0B0
:1008700090E001C0880F3A95EAF780958223808343
:100880000895FC01A081B1818C91968141E050E0F6
:100890009A0101C0220F9A95EAF7209528232C93FC
:1008A000A281B3818C91968101C0440F9A95EAF799
:1008B000482B4C930895DC011996ED91FC911A9701
:1008C00020811D963C9181E090E001C0880F3A950F
:1008D000EAF78095822380830895FC01A781B08583
:1008E0008C91958541E050E09A0101C0220F9A95C4
:1008F000EAF7209528232C93A185B2858C919585C4
:1009000001C0440F9A95EAF7482B4C930895DC01F7
:100910001B96ED91FC911C971D968C9141E050E047
:1009200002C0440F551F8A95E2F720E43FE1808121
:1009300090E084239523892B29F421503109B9F7BC
:1009400080E0089581E008951F93CF93DF93EC0139
:100950006623F1F00E942F04CE010E945B0485E023
:100960008A95F1F70000CE010E948704182F882392
:1009700051F080E28A95F1F7CE010E946D048AE27F
:100980008A95F1F700C0812FDF91CF911F910895D3
:100990000E944104E1CFFF920F931F93CF93DF9307
:1009A000EC018B010E942F04CE010E945B0485E0C4
:1009B0008A95F1F70000CE010E948704F82E882363
:1009C000B9F0E0E2EA95F1F7EC81FD81808190E0F9
:1009D0002E8102C0959587952A95E2F78170F801DE
:1009E0008083CE010E946D04FAE2FA95F1F700C00F
:1009F0008F2DDF91CF911F910F91FF900895CF938D
:100A0000DF93EC01E881F98140812E8181E090E063
:100A1000BC0102C0660F771F2A95E2F79B01209563
:100A200024232083EF81F88520813D8501C0880F34
:100A30003A95EAF7809582238083CE010E942F04A5
:100A4000CE010E945B0475E37A95F1F70000DF9117
:100A5000CF9108951F93CF93DF93EC010E942F0451
:100A6000CE010E945B0485E08A95F1F70000CE017B
:100A70000E948704182F882371F0CE010E94410440
:100A80008AE28A95F1F700C0CE010E946D048AE2E5
:100A90008A95F1F700C0812FDF91CF911F910895C2
:100AA0001F93CF93DF93EC010E942F04CE010E948D
:100AB0005B0485E08A95F1F70000CE010E9487046F
:100AC000182F882371F0CE010E9441048AE28A9592
:100AD000F1F700C0CE010E946D048AE28A95F1F719
:100AE00000C0812FDF91CF911F910895CF93DF93A5
:100AF000EC010E9441048AE28A95F1F700C0CE0120
:100B00000E945B0485E08A95F1F70000CE010E9407
:100B10008704CE010E942F0485E08A95F1F700003A
:100B2000DF91CF910895CF92DF92EF92FF920F93D2
:100B30001F93CF93DF931F92CDB7DEB76C01E62EE4
:100B400008E010E080E8F82E61E08E2D8F2109F496
:100B500060E0C6010E94A404882381F0F69401504D
:100B6000110991F7BE016F5F7F4FC6010E94CB0450
:100B7000882321F081E09981911180E00F90DF912D
:100B8000CF911F910F91FF90EF90DF90CF9008953C
:100B9000AF92BF92CF92DF92FF920F931F93CF93AA
:100BA000DF931F92CDB7DEB76C015B01042F88E0A5
:100BB000F82E10E0BE016F5F7F4FC6010E94CB048C
:100BC000882389F081E09981911101C080E0110FA3
:100BD000182BFA94F110EECFF501108361E0602735
:100BE000C6010E94A4040F90DF91CF911F910F9135
:100BF000FF90DF90CF90BF90AF9008951F93CF9359
:100C0000DF93EC010E942F0419E0CE010E945B04E7
:100C100085E08A95F1F7000080E28A95F1F7CE0130
:100C20000E946D048AE28A95F1F700C0115069F7BD
:100C3000CE01DF91CF911F910C9476051F93CF9336
:100C4000DF93EC018E859F850E942E0780E794E05C
:100C50000E942E07CE010E942F04CE010E945B0449
:100C60008FE99FE00197F1F700C00000EC81FD8162
:100C7000808190E02E8102C0959587952A95E2F7B4
:100C800011E080FD05C08EE794E00E942E0710E081
:100C9000EB85FC85808190E02D8502C09595879538
:100CA0002A95E2F780FD05C089E894E00E942E07AE
:100CB00010E0CE010E944104CE010E946D048FE934
:100CC0009FE00197F1F700C00000EC81FD81808179
:100CD00090E02E8102C0959587952A95E2F780FFD6
:100CE00005C084E994E00E942E0710E0EB85FC85A6
:100CF000808190E02D8502C0959587952A95E2F731
:100D000080FF05C08BEA94E00E942E0710E0CE0120
:100D10000E942F04CE010E945B048FE99FE001979F
:100D2000F1F700C0000084EA92E0112311F08DE693
:100D300094E00E942E078DE00E9427078AE00E941F
:100D40002707812FDF91CF911F910895DF92EF92B6
:100D5000FF920F931F93CF93DF938C01D62EFC014C
:100D6000868597850E942E0782EC94E00E942E07CC
:100D7000C1E0D0E0F12CC8010E942A05811119C000
:100D80008AEC94E00E942E07F11004C086ED94E0F6
:100D90000E942E078DE00E9427078AE00E94270705
:100DA0008D2FDF91CF911F910F91FF90EF90DF90EA
:100DB00008956C2F660FC8010E949305E82EC801A4
:100DC0000E947605EE2059F080E20E9427078C2FC2
:100DD0000E94B907FE2CDC1202C0DE2DFE2CCF5F74
:100DE000CF3749F6D1CF22E02093C0009B01AC0160
:100DF00083E0220F331F441F551F8A95D1F760E00F
:100E000074E284EF90E00E94DB07CA01B9016150EF
:100E10007109810991090E94990820E030E040E0C1
:100E20005FE30E94FE070E946A087093C50060930A
:100E3000C40088E18093C10086E08093C200809165
:100E4000C00087FF03C08091C600F9CF089590913C
:100E5000C00095FFFCCF8093C6000895CF93DF9329
:100E6000EC018991882319F00E942707FACFDF91BE
:100E7000CF9108950E942E078DE00E9427078AE0F7
:100E80000C9427072F923F924F925F926F927F921E
:100E90008F929F92AF92BF92CF92DF92EF92FF928A
:100EA0000F931F93CF93DF93CDB7DEB760970FB645
:100EB000F894DEBF0FBECDBF2B013C0177FE07C00B
:100EC00066277727CB0164197509860997099E0162
:100ED0002F5F3F4F69011901F12CE12C2AE0822E8E
:100EE000912CA12CB12C87010F5F1F4FA5019401FC
:100EF0000E94DB07605DF10161931F01B901CA0126
:100F0000611571058105910539F078010F301105E2
:100F100051F78EE0E82EF12C77FE08C0F601E00FC5
:100F2000F11F8DE2808387010E5F1F4F0C0D1D1D89
:100F3000F80182918F010E9427070C151D05C1F74A
:100F400060960FB6F894DEBF0FBECDBFDF91CF9194
:100F50001F910F91FF90EF90DF90CF90BF90AF90D7
:100F60009F908F907F906F905F904F903F902F90C9
:100F70000895CF93C82FE82FE295EF70F0E0E45288
:100F8000FB4F80810E942707CF70EC2FF0E0E452E6
:100F9000FB4F8081CF910C9427078091C000082ED1
:100FA000000C990B892F881F8827881F90E00895CF
:100FB0008091C6000895A1E21A2EAA1BBB1BFD0159
:100FC0000DC0AA1FBB1FEE1FFF1FA217B307E40728
:100FD000F50720F0A21BB30BE40BF50B661F771F80
:100FE000881F991F1A9469F7609570958095909560
:100FF0009B01AC01BD01CF0108955058BB27AA2722
:101000000E9415080C94ED080E94DF0838F00E9439
:10101000E60820F039F49F3F19F426F40C94DC081C
:101020000EF4E095E7FB0C94D608E92F0E94FE0829
:1010300058F3BA17620773078407950720F079F40D
:10104000A6F50C9420090EF4E0950B2EBA2FA02DD6
:101050000B01B90190010C01CA01A0011124FF2765
:10106000591B99F0593F50F4503E68F11A16F04060
:10107000A22F232F342F4427585FF3CF469537955F
:101080002795A795F0405395C9F77EF41F16BA0B24
:10109000620B730B840BBAF09150A1F0FF0FBB1FD2
:1010A000661F771F881FC2F70EC0BA0F621F731F1B
:1010B000841F48F4879577956795B795F7959E3F78
:1010C00008F0B0CF9395880F08F09927EE0F979509
:1010D000879508950E94060988F09F5798F0B92FC8
:1010E0009927B751B0F0E1F0660F771F881F991F5D
:1010F0001AF0BA95C9F714C0B13091F00E942009D6
:10110000B1E008950C942009672F782F8827B85FE5
:1011100039F0B93FCCF3869577956795B395D9F7B4
:101120003EF490958095709561957F4F8F4F9F4FBE
:101130000895E89409C097FB3EF4909580957095CA
:1011400061957F4F8F4F9F4F9923A9F0F92F96E913
:10115000BB279395F695879577956795B795F11188
:10116000F8CFFAF4BB0F11F460FF1BC06F5F7F4F25
:101170008F4F9F4F16C0882311F096E911C0772337
:1011800021F09EE8872F762F05C0662371F096E840
:10119000862F70E060E02AF09A95660F771F881F0F
:1011A000DAF7880F9695879597F9089597F99F67CD
:1011B00080E870E060E008959FEF80EC08950024DF
:1011C0000A941616170618060906089500240A94AC
:1011D00012161306140605060895092E0394000C32
:1011E00011F4882352F0BB0F40F4BF2B11F460FFC1
:1011F00004C06F5F7F4F8F4F9F4F089557FD9058EA
:10120000440F551F59F05F3F71F04795880F97FBCA
:10121000991F61F09F3F79F0879508951216130684
:101220001406551FF2CF4695F1DF08C016161706B3
:101230001806991FF1CF86957105610508940895E8
:10124000E894BB2766277727CB0197F90895F89490
:02125000FFCFCE
:101252002E002D002C00042E002D002C0005590418
:10126200340033003200052E002D002C00035E04F2
:1012720002010101000103020101010001046304F2
:1012820002010101000105020101010001066804D9
:101292003A2057484F5F414D5F4920726561642093
:1012A2006661696C6564003A2057484F5F414D5F43
:1012B200493D3078003A20756E65787065637465D3
:1012C200642057484F5F414D5F49202877616E7413
:1012D200203078433429003A207374616E64627955
:1012E200204641494C003A204354524C32207772F6
:1012F200697465204641494C003A206163746976FD
:1013020065204641494C003A205359534D4F443DC4
:10131200002044525F5354415455533D30780020CD
:101322004354524C313D307800204354524C323DAC
:10133200307800204449455F54454D503D002043DC
:10134200000D0A3D3D3D204D41473331313020787B
:101352003420E28094204465627567206272696E6F
:10136200672D757020284D6567613235363020440F
:10137200322E2E443929203D3D3D000D0A2D2D20CF
:101382003129204C696E652073656C662D74657316
:1013920074202D2D000D0A2D2D2032292042757327
:1013A200207265636F76657279202D2D003A205385
:1013B2004441206C6F77202D3E207265636F766505
:1013C20072696E67003A2053444120686967682059
:1013D200286F6B29000D0A2D2D2033292049324315
:1013E200207363616E20286578706563742030789D
:1013F200304529202D2D003A20736B697070656489
:1014020020286C696E652074657374206661696C4E
:10141200656429000D0A2D2D20342920496E697436
:10142200202B20737461747573202D2D003A206E69
:101432006F2030783045202D3E20736B6970000D8F
:101442000A2D2D2035292053747265616D696E67EE
:101452002058595A202D2D000D0A52454144590059
:1014620041434B2053544152540041434B20535467
:101472004F500042757300583D0020593D00205ADC
:101482003D00583D3020593D30205A3D30004E41FC
:101492004B2052455120286E6F7420737461727410
:1014A200656429004E414B2000427573300042753D
:1014B200733100427573320042757333004F4B0033
:1014C2003A206C696E6520746573743A20005B5330
:1014D2004441204C4F575D20005B53434C204C4FFE
:1014E200575D20005B534441206E6F742070756C11
:1014F2006C696E67204C4F575D20005B53434C2054
:101502006E6F742070756C6C696E67204C4F575DFE
:1015120020003A207363616E3A00205B737461723B
:10152200744552525D00206E6F6E65003031323369
:0E1532003435363738394142434445460000CF
:00000001FF
